{
  "contractName": "LiquidityDistributor",
  "abi": [
    {
      "inputs": [
        {
          "internalType": "contract IERC20",
          "name": "_depositToken",
          "type": "address"
        },
        {
          "internalType": "contract IERC20",
          "name": "_lod",
          "type": "address"
        },
        {
          "internalType": "contract Treasury",
          "name": "_treasury",
          "type": "address"
        }
      ],
      "payable": false,
      "stateMutability": "nonpayable",
      "type": "constructor"
    },
    {
      "anonymous": false,
      "inputs": [
        {
          "indexed": true,
          "internalType": "address",
          "name": "depositor",
          "type": "address"
        },
        {
          "indexed": true,
          "internalType": "address",
          "name": "beneficiary",
          "type": "address"
        },
        {
          "indexed": false,
          "internalType": "uint256",
          "name": "amount",
          "type": "uint256"
        }
      ],
      "name": "Deposit",
      "type": "event"
    },
    {
      "anonymous": false,
      "inputs": [
        {
          "indexed": true,
          "internalType": "address",
          "name": "depositor",
          "type": "address"
        },
        {
          "indexed": true,
          "internalType": "address",
          "name": "beneficiary",
          "type": "address"
        },
        {
          "indexed": false,
          "internalType": "uint256",
          "name": "amount",
          "type": "uint256"
        }
      ],
      "name": "EmergencyWithdraw",
      "type": "event"
    },
    {
      "anonymous": false,
      "inputs": [
        {
          "indexed": true,
          "internalType": "address",
          "name": "previousOwner",
          "type": "address"
        },
        {
          "indexed": true,
          "internalType": "address",
          "name": "newOwner",
          "type": "address"
        }
      ],
      "name": "OwnershipTransferred",
      "type": "event"
    },
    {
      "anonymous": false,
      "inputs": [
        {
          "indexed": true,
          "internalType": "address",
          "name": "depositor",
          "type": "address"
        },
        {
          "indexed": true,
          "internalType": "address",
          "name": "beneficiary",
          "type": "address"
        },
        {
          "indexed": false,
          "internalType": "uint256",
          "name": "amount",
          "type": "uint256"
        }
      ],
      "name": "Withdraw",
      "type": "event"
    },
    {
      "constant": true,
      "inputs": [],
      "name": "accLodPerShare",
      "outputs": [
        {
          "internalType": "uint256",
          "name": "",
          "type": "uint256"
        }
      ],
      "payable": false,
      "stateMutability": "view",
      "type": "function"
    },
    {
      "constant": true,
      "inputs": [],
      "name": "depositToken",
      "outputs": [
        {
          "internalType": "contract IERC20",
          "name": "",
          "type": "address"
        }
      ],
      "payable": false,
      "stateMutability": "view",
      "type": "function"
    },
    {
      "constant": true,
      "inputs": [],
      "name": "isOwner",
      "outputs": [
        {
          "internalType": "bool",
          "name": "",
          "type": "bool"
        }
      ],
      "payable": false,
      "stateMutability": "view",
      "type": "function"
    },
    {
      "constant": true,
      "inputs": [],
      "name": "lastRewardBlock",
      "outputs": [
        {
          "internalType": "uint256",
          "name": "",
          "type": "uint256"
        }
      ],
      "payable": false,
      "stateMutability": "view",
      "type": "function"
    },
    {
      "constant": true,
      "inputs": [],
      "name": "lod",
      "outputs": [
        {
          "internalType": "contract IERC20",
          "name": "",
          "type": "address"
        }
      ],
      "payable": false,
      "stateMutability": "view",
      "type": "function"
    },
    {
      "constant": true,
      "inputs": [],
      "name": "owner",
      "outputs": [
        {
          "internalType": "address",
          "name": "",
          "type": "address"
        }
      ],
      "payable": false,
      "stateMutability": "view",
      "type": "function"
    },
    {
      "constant": false,
      "inputs": [],
      "name": "renounceOwnership",
      "outputs": [],
      "payable": false,
      "stateMutability": "nonpayable",
      "type": "function"
    },
    {
      "constant": false,
      "inputs": [
        {
          "internalType": "address",
          "name": "newOwner",
          "type": "address"
        }
      ],
      "name": "transferOwnership",
      "outputs": [],
      "payable": false,
      "stateMutability": "nonpayable",
      "type": "function"
    },
    {
      "constant": true,
      "inputs": [],
      "name": "treasury",
      "outputs": [
        {
          "internalType": "contract Treasury",
          "name": "",
          "type": "address"
        }
      ],
      "payable": false,
      "stateMutability": "view",
      "type": "function"
    },
    {
      "constant": true,
      "inputs": [
        {
          "internalType": "address",
          "name": "",
          "type": "address"
        }
      ],
      "name": "userInfo",
      "outputs": [
        {
          "internalType": "uint256",
          "name": "amount",
          "type": "uint256"
        },
        {
          "internalType": "uint256",
          "name": "rewardDebt",
          "type": "uint256"
        }
      ],
      "payable": false,
      "stateMutability": "view",
      "type": "function"
    },
    {
      "constant": false,
      "inputs": [
        {
          "internalType": "address",
          "name": "_depositor",
          "type": "address"
        },
        {
          "internalType": "address",
          "name": "_beneficiary",
          "type": "address"
        },
        {
          "internalType": "uint256",
          "name": "_amount",
          "type": "uint256"
        }
      ],
      "name": "deposit",
      "outputs": [],
      "payable": false,
      "stateMutability": "nonpayable",
      "type": "function"
    },
    {
      "constant": false,
      "inputs": [
        {
          "internalType": "address",
          "name": "_beneficiary",
          "type": "address"
        },
        {
          "internalType": "uint256",
          "name": "_amount",
          "type": "uint256"
        }
      ],
      "name": "withdraw",
      "outputs": [],
      "payable": false,
      "stateMutability": "nonpayable",
      "type": "function"
    },
    {
      "constant": false,
      "inputs": [],
      "name": "updatePool",
      "outputs": [],
      "payable": false,
      "stateMutability": "nonpayable",
      "type": "function"
    },
    {
      "constant": true,
      "inputs": [
        {
          "internalType": "address",
          "name": "_user",
          "type": "address"
        }
      ],
      "name": "pendingRewards",
      "outputs": [
        {
          "internalType": "uint256",
          "name": "",
          "type": "uint256"
        }
      ],
      "payable": false,
      "stateMutability": "view",
      "type": "function"
    },
    {
      "constant": false,
      "inputs": [
        {
          "internalType": "address",
          "name": "_beneficiary",
          "type": "address"
        }
      ],
      "name": "emergencyWithdraw",
      "outputs": [],
      "payable": false,
      "stateMutability": "nonpayable",
      "type": "function"
    }
  ],
  "bytecode": "0x6080604052600060055534801561001557600080fd5b50604051611b2c380380611b2c8339818101604052606081101561003857600080fd5b81019080805190602001909291908051906020019092919080519060200190929190505050336000806101000a81548173ffffffffffffffffffffffffffffffffffffffff021916908373ffffffffffffffffffffffffffffffffffffffff1602179055506000809054906101000a900473ffffffffffffffffffffffffffffffffffffffff1673ffffffffffffffffffffffffffffffffffffffff16600073ffffffffffffffffffffffffffffffffffffffff167f8be0079c531659141344cd1fd0a4f28419497f9722a3daafe3b4186f6b6457e060405160405180910390a382600260006101000a81548173ffffffffffffffffffffffffffffffffffffffff021916908373ffffffffffffffffffffffffffffffffffffffff16021790555081600360006101000a81548173ffffffffffffffffffffffffffffffffffffffff021916908373ffffffffffffffffffffffffffffffffffffffff16021790555080600460006101000a81548173ffffffffffffffffffffffffffffffffffffffff021916908373ffffffffffffffffffffffffffffffffffffffff16021790555050505061193e806101ee6000396000f3fe608060405234801561001057600080fd5b50600436106100f55760003560e01c80638da5cb5b11610097578063e3161ddd11610066578063e3161ddd146103a9578063f2fde38b146103b3578063f3fef3a3146103f7578063f6235dc814610445576100f5565b80638da5cb5b146102d55780638f32d59b1461031f578063a9f8d18114610341578063c89039c51461035f576100f5565b806361d027b3116100d357806361d027b3146101cf5780636ff1c9bc14610219578063715018a61461025d5780638340f54914610267576100f5565b80631959a002146100fa57806331d7a26214610159578063350e6c55146101b1575b600080fd5b61013c6004803603602081101561011057600080fd5b81019080803573ffffffffffffffffffffffffffffffffffffffff16906020019092919050505061048f565b604051808381526020018281526020019250505060405180910390f35b61019b6004803603602081101561016f57600080fd5b81019080803573ffffffffffffffffffffffffffffffffffffffff1690602001909291905050506104b3565b6040518082815260200191505060405180910390f35b6101b9610731565b6040518082815260200191505060405180910390f35b6101d7610737565b604051808273ffffffffffffffffffffffffffffffffffffffff1673ffffffffffffffffffffffffffffffffffffffff16815260200191505060405180910390f35b61025b6004803603602081101561022f57600080fd5b81019080803573ffffffffffffffffffffffffffffffffffffffff16906020019092919050505061075d565b005b61026561090a565b005b6102d36004803603606081101561027d57600080fd5b81019080803573ffffffffffffffffffffffffffffffffffffffff169060200190929190803573ffffffffffffffffffffffffffffffffffffffff16906020019092919080359060200190929190505050610a43565b005b6102dd610cb2565b604051808273ffffffffffffffffffffffffffffffffffffffff1673ffffffffffffffffffffffffffffffffffffffff16815260200191505060405180910390f35b610327610cdb565b604051808215151515815260200191505060405180910390f35b610349610d32565b6040518082815260200191505060405180910390f35b610367610d38565b604051808273ffffffffffffffffffffffffffffffffffffffff1673ffffffffffffffffffffffffffffffffffffffff16815260200191505060405180910390f35b6103b1610d5e565b005b6103f5600480360360208110156103c957600080fd5b81019080803573ffffffffffffffffffffffffffffffffffffffff169060200190929190505050610f42565b005b6104436004803603604081101561040d57600080fd5b81019080803573ffffffffffffffffffffffffffffffffffffffff16906020019092919080359060200190929190505050610fc8565b005b61044d611251565b604051808273ffffffffffffffffffffffffffffffffffffffff1673ffffffffffffffffffffffffffffffffffffffff16815260200191505060405180910390f35b60016020528060005260406000206000915090508060000154908060010154905082565b600080600160008473ffffffffffffffffffffffffffffffffffffffff1673ffffffffffffffffffffffffffffffffffffffff16815260200190815260200160002090506000600260009054906101000a900473ffffffffffffffffffffffffffffffffffffffff1673ffffffffffffffffffffffffffffffffffffffff166370a08231306040518263ffffffff1660e01b8152600401808273ffffffffffffffffffffffffffffffffffffffff1673ffffffffffffffffffffffffffffffffffffffff16815260200191505060206040518083038186803b15801561059857600080fd5b505afa1580156105ac573d6000803e3d6000fd5b505050506040513d60208110156105c257600080fd5b8101908080519060200190929190505050905060006005549050600654431180156105ee575060008214155b156106fa576000600460009054906101000a900473ffffffffffffffffffffffffffffffffffffffff1673ffffffffffffffffffffffffffffffffffffffff1663f004f251306040518263ffffffff1660e01b8152600401808273ffffffffffffffffffffffffffffffffffffffff1673ffffffffffffffffffffffffffffffffffffffff16815260200191505060206040518083038186803b15801561069457600080fd5b505afa1580156106a8573d6000803e3d6000fd5b505050506040513d60208110156106be57600080fd5b810190808051906020019092919050505090506106f66106e7848361127790919063ffffffff16565b8361130690919063ffffffff16565b9150505b610727836001015461071983866000015461138e90919063ffffffff16565b61141490919063ffffffff16565b9350505050919050565b60055481565b600460009054906101000a900473ffffffffffffffffffffffffffffffffffffffff1681565b6000600160003373ffffffffffffffffffffffffffffffffffffffff1673ffffffffffffffffffffffffffffffffffffffff1681526020019081526020016000209050600260009054906101000a900473ffffffffffffffffffffffffffffffffffffffff1673ffffffffffffffffffffffffffffffffffffffff1663a9059cbb8383600001546040518363ffffffff1660e01b8152600401808373ffffffffffffffffffffffffffffffffffffffff1673ffffffffffffffffffffffffffffffffffffffff16815260200182815260200192505050602060405180830381600087803b15801561084d57600080fd5b505af1158015610861573d6000803e3d6000fd5b505050506040513d602081101561087757600080fd5b8101908080519060200190929190505050508173ffffffffffffffffffffffffffffffffffffffff163373ffffffffffffffffffffffffffffffffffffffff167ff24ef89f38eadc1bde50701ad6e4d6d11a2dc24f7cf834a486991f388332850483600001546040518082815260200191505060405180910390a360008160000181905550600081600101819055505050565b610912610cdb565b610984576040517f08c379a00000000000000000000000000000000000000000000000000000000081526004018080602001828103825260208152602001807f4f776e61626c653a2063616c6c6572206973206e6f7420746865206f776e657281525060200191505060405180910390fd5b600073ffffffffffffffffffffffffffffffffffffffff166000809054906101000a900473ffffffffffffffffffffffffffffffffffffffff1673ffffffffffffffffffffffffffffffffffffffff167f8be0079c531659141344cd1fd0a4f28419497f9722a3daafe3b4186f6b6457e060405160405180910390a360008060006101000a81548173ffffffffffffffffffffffffffffffffffffffff021916908373ffffffffffffffffffffffffffffffffffffffff160217905550565b6000600160008573ffffffffffffffffffffffffffffffffffffffff1673ffffffffffffffffffffffffffffffffffffffff1681526020019081526020016000209050610a8e610d5e565b600081600001541115610ae4576000610acc8260010154610abe600554856000015461138e90919063ffffffff16565b61141490919063ffffffff16565b90506000811115610ae257610ae1848261149d565b5b505b6000821115610c2657600260009054906101000a900473ffffffffffffffffffffffffffffffffffffffff1673ffffffffffffffffffffffffffffffffffffffff166323b872dd8530856040518463ffffffff1660e01b8152600401808473ffffffffffffffffffffffffffffffffffffffff1673ffffffffffffffffffffffffffffffffffffffff1681526020018373ffffffffffffffffffffffffffffffffffffffff1673ffffffffffffffffffffffffffffffffffffffff1681526020018281526020019350505050602060405180830381600087803b158015610bca57600080fd5b505af1158015610bde573d6000803e3d6000fd5b505050506040513d6020811015610bf457600080fd5b810190808051906020019092919050505050610c1d82826000015461130690919063ffffffff16565b81600001819055505b610c3f600554826000015461138e90919063ffffffff16565b81600101819055508273ffffffffffffffffffffffffffffffffffffffff168473ffffffffffffffffffffffffffffffffffffffff167f5548c837ab068cf56a2c2479df0882a4922fd203edb7517321831d95078c5f62846040518082815260200191505060405180910390a350505050565b60008060009054906101000a900473ffffffffffffffffffffffffffffffffffffffff16905090565b60008060009054906101000a900473ffffffffffffffffffffffffffffffffffffffff1673ffffffffffffffffffffffffffffffffffffffff163373ffffffffffffffffffffffffffffffffffffffff1614905090565b60065481565b600260009054906101000a900473ffffffffffffffffffffffffffffffffffffffff1681565b6006544311610d6c57610f40565b6000600260009054906101000a900473ffffffffffffffffffffffffffffffffffffffff1673ffffffffffffffffffffffffffffffffffffffff166370a08231306040518263ffffffff1660e01b8152600401808273ffffffffffffffffffffffffffffffffffffffff1673ffffffffffffffffffffffffffffffffffffffff16815260200191505060206040518083038186803b158015610e0d57600080fd5b505afa158015610e21573d6000803e3d6000fd5b505050506040513d6020811015610e3757600080fd5b810190808051906020019092919050505090506000811415610e60574360068190555050610f40565b6000600460009054906101000a900473ffffffffffffffffffffffffffffffffffffffff1673ffffffffffffffffffffffffffffffffffffffff16639f678cca6040518163ffffffff1660e01b8152600401602060405180830381600087803b158015610ecc57600080fd5b505af1158015610ee0573d6000803e3d6000fd5b505050506040513d6020811015610ef657600080fd5b81019080805190602001909291905050509050610f30610f1f838361127790919063ffffffff16565b60055461130690919063ffffffff16565b6005819055504360068190555050505b565b610f4a610cdb565b610fbc576040517f08c379a00000000000000000000000000000000000000000000000000000000081526004018080602001828103825260208152602001807f4f776e61626c653a2063616c6c6572206973206e6f7420746865206f776e657281525060200191505060405180910390fd5b610fc581611758565b50565b6000600160003373ffffffffffffffffffffffffffffffffffffffff1673ffffffffffffffffffffffffffffffffffffffff16815260200190815260200160002090508181600001541015611068576040517f08c379a00000000000000000000000000000000000000000000000000000000081526004018080602001828103825260268152602001806118e46026913960400191505060405180910390fd5b611070610d5e565b60006110a18260010154611093600554856000015461138e90919063ffffffff16565b61141490919063ffffffff16565b905060008111156110b7576110b6848261149d565b5b60008311156111c5576110d783836000015461141490919063ffffffff16565b8260000181905550600260009054906101000a900473ffffffffffffffffffffffffffffffffffffffff1673ffffffffffffffffffffffffffffffffffffffff1663a9059cbb85856040518363ffffffff1660e01b8152600401808373ffffffffffffffffffffffffffffffffffffffff1673ffffffffffffffffffffffffffffffffffffffff16815260200182815260200192505050602060405180830381600087803b15801561118857600080fd5b505af115801561119c573d6000803e3d6000fd5b505050506040513d60208110156111b257600080fd5b8101908080519060200190929190505050505b6111de600554836000015461138e90919063ffffffff16565b82600101819055508373ffffffffffffffffffffffffffffffffffffffff163373ffffffffffffffffffffffffffffffffffffffff167f9b1bfa7fa9ee420a16e124f794c35ac9f90472acc99140eb2f6447c714cad8eb856040518082815260200191505060405180910390a350505050565b600360009054906101000a900473ffffffffffffffffffffffffffffffffffffffff1681565b60008082116112ee576040517f08c379a000000000000000000000000000000000000000000000000000000000815260040180806020018281038252601a8152602001807f536166654d6174683a206469766973696f6e206279207a65726f00000000000081525060200191505060405180910390fd5b60008284816112f957fe5b0490508091505092915050565b600080828401905083811015611384576040517f08c379a000000000000000000000000000000000000000000000000000000000815260040180806020018281038252601b8152602001807f536166654d6174683a206164646974696f6e206f766572666c6f77000000000081525060200191505060405180910390fd5b8091505092915050565b6000808314156113a1576000905061140e565b60008284029050828482816113b257fe5b0414611409576040517f08c379a00000000000000000000000000000000000000000000000000000000081526004018080602001828103825260218152602001806118c36021913960400191505060405180910390fd5b809150505b92915050565b60008282111561148c576040517f08c379a000000000000000000000000000000000000000000000000000000000815260040180806020018281038252601e8152602001807f536166654d6174683a207375627472616374696f6e206f766572666c6f77000081525060200191505060405180910390fd5b600082840390508091505092915050565b6000600360009054906101000a900473ffffffffffffffffffffffffffffffffffffffff1673ffffffffffffffffffffffffffffffffffffffff166370a08231306040518263ffffffff1660e01b8152600401808273ffffffffffffffffffffffffffffffffffffffff1673ffffffffffffffffffffffffffffffffffffffff16815260200191505060206040518083038186803b15801561153e57600080fd5b505afa158015611552573d6000803e3d6000fd5b505050506040513d602081101561156857600080fd5b810190808051906020019092919050505090508082111561166d57600360009054906101000a900473ffffffffffffffffffffffffffffffffffffffff1673ffffffffffffffffffffffffffffffffffffffff1663a9059cbb84836040518363ffffffff1660e01b8152600401808373ffffffffffffffffffffffffffffffffffffffff1673ffffffffffffffffffffffffffffffffffffffff16815260200182815260200192505050602060405180830381600087803b15801561162c57600080fd5b505af1158015611640573d6000803e3d6000fd5b505050506040513d602081101561165657600080fd5b810190808051906020019092919050505050611753565b600360009054906101000a900473ffffffffffffffffffffffffffffffffffffffff1673ffffffffffffffffffffffffffffffffffffffff1663a9059cbb84846040518363ffffffff1660e01b8152600401808373ffffffffffffffffffffffffffffffffffffffff1673ffffffffffffffffffffffffffffffffffffffff16815260200182815260200192505050602060405180830381600087803b15801561171657600080fd5b505af115801561172a573d6000803e3d6000fd5b505050506040513d602081101561174057600080fd5b8101908080519060200190929190505050505b505050565b600073ffffffffffffffffffffffffffffffffffffffff168173ffffffffffffffffffffffffffffffffffffffff1614156117de576040517f08c379a000000000000000000000000000000000000000000000000000000000815260040180806020018281038252602681526020018061189d6026913960400191505060405180910390fd5b8073ffffffffffffffffffffffffffffffffffffffff166000809054906101000a900473ffffffffffffffffffffffffffffffffffffffff1673ffffffffffffffffffffffffffffffffffffffff167f8be0079c531659141344cd1fd0a4f28419497f9722a3daafe3b4186f6b6457e060405160405180910390a3806000806101000a81548173ffffffffffffffffffffffffffffffffffffffff021916908373ffffffffffffffffffffffffffffffffffffffff1602179055505056fe4f776e61626c653a206e6577206f776e657220697320746865207a65726f2061646472657373536166654d6174683a206d756c7469706c69636174696f6e206f766572666c6f7763616e6e6f74207769746864726177206d6f7265207468616e20796f7572206465706f736974a265627a7a723158203a1da137f11164f8f95d0152d59e8ef10c807cfc2ba31a20b806fc263fce021d64736f6c63430005100032",
  "source": "pragma solidity ^0.5.16;\n\nimport \"../libraries/math/SafeMath.sol\";\nimport \"../libraries/tokens/IERC20.sol\";\nimport \"../libraries/utils/Ownable.sol\";\nimport \"../libraries/utils/Address.sol\";\nimport \"../gov/Treasury.sol\";\n\ncontract LiquidityDistributor is Ownable {\n    using SafeMath for uint256;\n\n    event Deposit(\n        address indexed depositor,\n        address indexed beneficiary,\n        uint256 amount\n    );\n    event Withdraw(\n        address indexed depositor,\n        address indexed beneficiary,\n        uint256 amount\n    );\n    event EmergencyWithdraw(\n        address indexed depositor,\n        address indexed beneficiary,\n        uint256 amount\n    );\n\n    // Info of each user\n    struct UserInfo {\n        uint256 amount; // How many LP tokens the user has deposited.\n        uint256 rewardDebt; // Reward debt. See explanation below.\n        //\n        // We do some fancy math here. Basically, any point in time, the amount of LODs\n        // entitled to a user but is pending to be distributed is:\n        //\n        //   pending reward = (user.amount * pool.accLodPerShare) - user.rewardDebt\n        //\n        // Whenever a user deposits or withdraws LP tokens to a pool. Here's what happens:\n        //   1. The pool's `accLodPerShare` (and `lastRewardBlock`) gets updated.\n        //   2. User receives the pending reward sent to his/her address.\n        //   3. User's `amount` gets updated.\n        //   4. User's `rewardDebt` gets updated.\n    }\n\n    // Info of each user that deposits LP tokens.\n    mapping(address => UserInfo) public userInfo;\n\n    // Info of pool\n    IERC20 public depositToken; // Token that users deposit.\n    IERC20 public lod; // Token to be distributed.\n    Treasury public treasury; // The block number when LOD mining starts.\n\n    //variables\n    uint256 public accLodPerShare = 0; // Accumulated LODs per share.\n    uint256 public lastRewardBlock; // Last block number that LODs distribution occurs.\n\n    constructor(\n        IERC20 _depositToken,\n        IERC20 _lod,\n        Treasury _treasury\n    ) public {\n        depositToken = _depositToken;\n        lod = _lod;\n        treasury = _treasury;\n    }\n\n    /**\n     * @dev Transfers amount of deposit tokens from the caller.\n     * @param _depositor User address who deposits tokens.\n     * @param _beneficiary User address who gains credit for this deposit operation.\n     * @param _amount Number of tokens to deposit.\n     */\n    function deposit(\n        address _depositor,\n        address _beneficiary,\n        uint256 _amount\n    ) external {\n        UserInfo storage user = userInfo[_depositor];\n        updatePool();\n        if (user.amount > 0) {\n            uint256 pending = user.amount.mul(accLodPerShare).sub(\n                user.rewardDebt\n            );\n            if (pending > 0) {\n                safeLodTransfer(_beneficiary, pending);\n            }\n        }\n\n        if (_amount > 0) {\n            depositToken.transferFrom(\n                address(_depositor),\n                address(this),\n                _amount\n            );\n            user.amount = user.amount.add(_amount);\n        }\n        user.rewardDebt = user.amount.mul(accLodPerShare);\n        emit Deposit(_depositor, _beneficiary, _amount);\n    }\n\n    /**\n     * @dev withdraws a certain amount of previously deposited tokens. User also receives their\n     * alotted number of distribution tokens.\n     * @param _beneficiary User address who gains credit for this deposit operation.\n     * @param _amount Number of tokens to withdraw.\n     */\n    function withdraw(address _beneficiary, uint256 _amount) external {\n        UserInfo storage user = userInfo[msg.sender];\n        require(\n            user.amount >= _amount,\n            \"cannot withdraw more than your deposit\"\n        );\n        updatePool();\n        uint256 pending = user.amount.mul(accLodPerShare).sub(user.rewardDebt);\n        if (pending > 0) {\n            safeLodTransfer(_beneficiary, pending);\n        }\n        if (_amount > 0) {\n            user.amount = user.amount.sub(_amount);\n            depositToken.transfer(address(_beneficiary), _amount);\n        }\n        user.rewardDebt = user.amount.mul(accLodPerShare);\n        emit Withdraw(msg.sender, _beneficiary, _amount);\n    }\n\n    // Update reward variables of the pool to be up-to-date.\n    function updatePool() public {\n        if (block.number <= lastRewardBlock) {\n            return;\n        }\n        uint256 totalDepositToken = depositToken.balanceOf(address(this));\n        if (totalDepositToken == 0) {\n            lastRewardBlock = block.number;\n            return;\n        }\n        uint256 drip = treasury.drip();\n        accLodPerShare = accLodPerShare.add(drip.div(totalDepositToken));\n        lastRewardBlock = block.number;\n    }\n\n    // View function to see pending LODs on frontend.\n    function pendingRewards(address _user) external view returns (uint256) {\n        UserInfo storage user = userInfo[_user];\n        uint256 totalDepositToken = depositToken.balanceOf(address(this));\n        uint256 _accLodPerShare = accLodPerShare;\n        if (block.number > lastRewardBlock && totalDepositToken != 0) {\n            uint256 pendingDrip = treasury.pendingDrip(address(this));\n            _accLodPerShare = _accLodPerShare.add(\n                pendingDrip.div(totalDepositToken)\n            );\n        }\n        return user.amount.mul(_accLodPerShare).sub(user.rewardDebt);\n    }\n\n    // Withdraw without caring about rewards. EMERGENCY ONLY.\n    function emergencyWithdraw(address _beneficiary) public {\n        UserInfo storage user = userInfo[msg.sender];\n        depositToken.transfer(address(_beneficiary), user.amount);\n        emit EmergencyWithdraw(msg.sender, _beneficiary, user.amount);\n        user.amount = 0;\n        user.rewardDebt = 0;\n    }\n\n    // Safe lod transfer function, just in case if rounding error causes pool to not have enough LODs.\n    function safeLodTransfer(address _to, uint256 _amount) internal {\n        uint256 lodBal = lod.balanceOf(address(this));\n        if (_amount > lodBal) {\n            lod.transfer(_to, lodBal);\n        } else {\n            lod.transfer(_to, _amount);\n        }\n    }\n}\n",
  "sourcePath": "/Users/kohshiba/Desktop/monorepo/LOD/contracts/liquidity/LiquidityDistributor.sol",
  "compiler": {
    "name": "solc",
    "version": "0.5.16+commit.9c3226ce.Emscripten.clang"
  },
  "schemaVersion": "3.0.19",
  "updatedAt": "2020-11-04T23:16:58.028Z",
  "networkType": "ethereum",
  "devdoc": {
    "methods": {
      "deposit(address,address,uint256)": {
        "details": "Transfers amount of deposit tokens from the caller.",
        "params": {
          "_amount": "Number of tokens to deposit.",
          "_beneficiary": "User address who gains credit for this deposit operation.",
          "_depositor": "User address who deposits tokens."
        }
      },
      "isOwner()": {
        "details": "Returns true if the caller is the current owner."
      },
      "owner()": {
        "details": "Returns the address of the current owner."
      },
      "renounceOwnership()": {
        "details": "Leaves the contract without owner. It will not be possible to call `onlyOwner` functions anymore. Can only be called by the current owner.     * > Note: Renouncing ownership will leave the contract without an owner, thereby removing any functionality that is only available to the owner."
      },
      "transferOwnership(address)": {
        "details": "Transfers ownership of the contract to a new account (`newOwner`). Can only be called by the current owner."
      },
      "withdraw(address,uint256)": {
        "details": "withdraws a certain amount of previously deposited tokens. User also receives their alotted number of distribution tokens.",
        "params": {
          "_amount": "Number of tokens to withdraw.",
          "_beneficiary": "User address who gains credit for this deposit operation."
        }
      }
    }
  },
  "userdoc": {
    "methods": {}
  }
}