{
  "contractName": "MarketDistributor",
  "abi": [
    {
      "inputs": [
        {
          "internalType": "uint256",
          "name": "_start",
          "type": "uint256"
        },
        {
          "internalType": "uint256",
          "name": "_span",
          "type": "uint256"
        },
        {
          "internalType": "contract IERC20",
          "name": "_token",
          "type": "address"
        },
        {
          "internalType": "contract Treasury",
          "name": "_treasury",
          "type": "address"
        }
      ],
      "payable": false,
      "stateMutability": "nonpayable",
      "type": "constructor"
    },
    {
      "anonymous": false,
      "inputs": [
        {
          "indexed": true,
          "internalType": "address",
          "name": "previousOwner",
          "type": "address"
        },
        {
          "indexed": true,
          "internalType": "address",
          "name": "newOwner",
          "type": "address"
        }
      ],
      "name": "OwnershipTransferred",
      "type": "event"
    },
    {
      "anonymous": false,
      "inputs": [
        {
          "indexed": true,
          "internalType": "address",
          "name": "user",
          "type": "address"
        },
        {
          "indexed": false,
          "internalType": "uint256",
          "name": "round",
          "type": "uint256"
        },
        {
          "indexed": false,
          "internalType": "uint256",
          "name": "amount",
          "type": "uint256"
        }
      ],
      "name": "Registered",
      "type": "event"
    },
    {
      "anonymous": false,
      "inputs": [
        {
          "indexed": true,
          "internalType": "uint256",
          "name": "round",
          "type": "uint256"
        },
        {
          "indexed": false,
          "internalType": "uint256",
          "name": "amount",
          "type": "uint256"
        },
        {
          "indexed": false,
          "internalType": "uint256",
          "name": "blocknumber",
          "type": "uint256"
        }
      ],
      "name": "RoundSettled",
      "type": "event"
    },
    {
      "anonymous": false,
      "inputs": [
        {
          "indexed": true,
          "internalType": "address",
          "name": "user",
          "type": "address"
        },
        {
          "indexed": false,
          "internalType": "uint256",
          "name": "round",
          "type": "uint256"
        },
        {
          "indexed": false,
          "internalType": "uint256",
          "name": "amount",
          "type": "uint256"
        }
      ],
      "name": "Withdraw",
      "type": "event"
    },
    {
      "constant": true,
      "inputs": [],
      "name": "isOwner",
      "outputs": [
        {
          "internalType": "bool",
          "name": "",
          "type": "bool"
        }
      ],
      "payable": false,
      "stateMutability": "view",
      "type": "function"
    },
    {
      "constant": true,
      "inputs": [],
      "name": "lastRewardBlock",
      "outputs": [
        {
          "internalType": "uint256",
          "name": "",
          "type": "uint256"
        }
      ],
      "payable": false,
      "stateMutability": "view",
      "type": "function"
    },
    {
      "constant": true,
      "inputs": [],
      "name": "market",
      "outputs": [
        {
          "internalType": "address",
          "name": "",
          "type": "address"
        }
      ],
      "payable": false,
      "stateMutability": "view",
      "type": "function"
    },
    {
      "constant": true,
      "inputs": [],
      "name": "owner",
      "outputs": [
        {
          "internalType": "address",
          "name": "",
          "type": "address"
        }
      ],
      "payable": false,
      "stateMutability": "view",
      "type": "function"
    },
    {
      "constant": false,
      "inputs": [],
      "name": "renounceOwnership",
      "outputs": [],
      "payable": false,
      "stateMutability": "nonpayable",
      "type": "function"
    },
    {
      "constant": true,
      "inputs": [
        {
          "internalType": "uint256",
          "name": "",
          "type": "uint256"
        },
        {
          "internalType": "address",
          "name": "",
          "type": "address"
        }
      ],
      "name": "rewardShares",
      "outputs": [
        {
          "internalType": "uint256",
          "name": "",
          "type": "uint256"
        }
      ],
      "payable": false,
      "stateMutability": "view",
      "type": "function"
    },
    {
      "constant": true,
      "inputs": [],
      "name": "round",
      "outputs": [
        {
          "internalType": "uint256",
          "name": "",
          "type": "uint256"
        }
      ],
      "payable": false,
      "stateMutability": "view",
      "type": "function"
    },
    {
      "constant": true,
      "inputs": [],
      "name": "span",
      "outputs": [
        {
          "internalType": "uint256",
          "name": "",
          "type": "uint256"
        }
      ],
      "payable": false,
      "stateMutability": "view",
      "type": "function"
    },
    {
      "constant": true,
      "inputs": [],
      "name": "token",
      "outputs": [
        {
          "internalType": "contract IERC20",
          "name": "",
          "type": "address"
        }
      ],
      "payable": false,
      "stateMutability": "view",
      "type": "function"
    },
    {
      "constant": true,
      "inputs": [
        {
          "internalType": "uint256",
          "name": "",
          "type": "uint256"
        }
      ],
      "name": "totalReward",
      "outputs": [
        {
          "internalType": "uint256",
          "name": "",
          "type": "uint256"
        }
      ],
      "payable": false,
      "stateMutability": "view",
      "type": "function"
    },
    {
      "constant": true,
      "inputs": [
        {
          "internalType": "uint256",
          "name": "",
          "type": "uint256"
        }
      ],
      "name": "totalRewardShare",
      "outputs": [
        {
          "internalType": "uint256",
          "name": "",
          "type": "uint256"
        }
      ],
      "payable": false,
      "stateMutability": "view",
      "type": "function"
    },
    {
      "constant": false,
      "inputs": [
        {
          "internalType": "address",
          "name": "newOwner",
          "type": "address"
        }
      ],
      "name": "transferOwnership",
      "outputs": [],
      "payable": false,
      "stateMutability": "nonpayable",
      "type": "function"
    },
    {
      "constant": true,
      "inputs": [],
      "name": "treasury",
      "outputs": [
        {
          "internalType": "contract Treasury",
          "name": "",
          "type": "address"
        }
      ],
      "payable": false,
      "stateMutability": "view",
      "type": "function"
    },
    {
      "constant": false,
      "inputs": [
        {
          "internalType": "uint256",
          "name": "_volume",
          "type": "uint256"
        },
        {
          "internalType": "address",
          "name": "_receipant",
          "type": "address"
        }
      ],
      "name": "registerVolume",
      "outputs": [],
      "payable": false,
      "stateMutability": "nonpayable",
      "type": "function"
    },
    {
      "constant": false,
      "inputs": [
        {
          "internalType": "uint256[]",
          "name": "_rounds",
          "type": "uint256[]"
        },
        {
          "internalType": "address",
          "name": "_shareholder",
          "type": "address"
        }
      ],
      "name": "withdrawRewardAll",
      "outputs": [],
      "payable": false,
      "stateMutability": "nonpayable",
      "type": "function"
    },
    {
      "constant": false,
      "inputs": [
        {
          "internalType": "uint256",
          "name": "_round",
          "type": "uint256"
        },
        {
          "internalType": "address",
          "name": "_shareholder",
          "type": "address"
        }
      ],
      "name": "withdrawReward",
      "outputs": [],
      "payable": false,
      "stateMutability": "nonpayable",
      "type": "function"
    },
    {
      "constant": false,
      "inputs": [],
      "name": "changeRound",
      "outputs": [],
      "payable": false,
      "stateMutability": "nonpayable",
      "type": "function"
    },
    {
      "constant": true,
      "inputs": [
        {
          "internalType": "uint256",
          "name": "_round",
          "type": "uint256"
        },
        {
          "internalType": "address",
          "name": "_shareholder",
          "type": "address"
        }
      ],
      "name": "checkReward",
      "outputs": [
        {
          "internalType": "uint256",
          "name": "",
          "type": "uint256"
        }
      ],
      "payable": false,
      "stateMutability": "view",
      "type": "function"
    },
    {
      "constant": false,
      "inputs": [
        {
          "internalType": "address",
          "name": "_market",
          "type": "address"
        }
      ],
      "name": "setMarket",
      "outputs": [],
      "payable": false,
      "stateMutability": "nonpayable",
      "type": "function"
    }
  ],
  "bytecode": "0x608060405234801561001057600080fd5b506040516115093803806115098339818101604052608081101561003357600080fd5b8101908080519060200190929190805190602001909291908051906020019092919080519060200190929190505050336000806101000a81548173ffffffffffffffffffffffffffffffffffffffff021916908373ffffffffffffffffffffffffffffffffffffffff1602179055506000809054906101000a900473ffffffffffffffffffffffffffffffffffffffff1673ffffffffffffffffffffffffffffffffffffffff16600073ffffffffffffffffffffffffffffffffffffffff167f8be0079c531659141344cd1fd0a4f28419497f9722a3daafe3b4186f6b6457e060405160405180910390a3836005819055508260038190555081600260006101000a81548173ffffffffffffffffffffffffffffffffffffffff021916908373ffffffffffffffffffffffffffffffffffffffff16021790555080600160006101000a81548173ffffffffffffffffffffffffffffffffffffffff021916908373ffffffffffffffffffffffffffffffffffffffff160217905550600160046000828254019250508190555050505050611337806101d26000396000f3fe608060405234801561001057600080fd5b50600436106101215760003560e01c8063715018a6116100ad578063a782ff7c11610071578063a782ff7c146104df578063a9f8d1811461052d578063dd506e091461054b578063f2fde38b14610555578063fc0c546a1461059957610121565b8063715018a6146103dd57806377d3a211146103e757806380f55605146104295780638da5cb5b146104735780638f32d59b146104bd57610121565b806334a0cc44116100f457806334a0cc44146102065780634e7c0aa21461029f57806361d027b3146103015780636a2c53521461034b5780636dcea85f1461039957610121565b8063146ca5311461012657806321a4e9b01461014457806323a6f46e146101a65780632585581f146101e8575b600080fd5b61012e6105e3565b6040518082815260200191505060405180910390f35b6101906004803603604081101561015a57600080fd5b8101908080359060200190929190803573ffffffffffffffffffffffffffffffffffffffff1690602001909291905050506105e9565b6040518082815260200191505060405180910390f35b6101d2600480360360208110156101bc57600080fd5b8101908080359060200190929190505050610727565b6040518082815260200191505060405180910390f35b6101f061073f565b6040518082815260200191505060405180910390f35b61029d6004803603604081101561021c57600080fd5b810190808035906020019064010000000081111561023957600080fd5b82018360208201111561024b57600080fd5b8035906020019184602083028401116401000000008311171561026d57600080fd5b9091929391929390803573ffffffffffffffffffffffffffffffffffffffff169060200190929190505050610745565b005b6102eb600480360360408110156102b557600080fd5b8101908080359060200190929190803573ffffffffffffffffffffffffffffffffffffffff169060200190929190505050610783565b6040518082815260200191505060405180910390f35b6103096107a8565b604051808273ffffffffffffffffffffffffffffffffffffffff1673ffffffffffffffffffffffffffffffffffffffff16815260200191505060405180910390f35b6103976004803603604081101561036157600080fd5b8101908080359060200190929190803573ffffffffffffffffffffffffffffffffffffffff1690602001909291905050506107ce565b005b6103db600480360360208110156103af57600080fd5b81019080803573ffffffffffffffffffffffffffffffffffffffff169060200190929190505050610a0c565b005b6103e5610aca565b005b610413600480360360208110156103fd57600080fd5b8101908080359060200190929190505050610c03565b6040518082815260200191505060405180910390f35b610431610c1b565b604051808273ffffffffffffffffffffffffffffffffffffffff1673ffffffffffffffffffffffffffffffffffffffff16815260200191505060405180910390f35b61047b610c41565b604051808273ffffffffffffffffffffffffffffffffffffffff1673ffffffffffffffffffffffffffffffffffffffff16815260200191505060405180910390f35b6104c5610c6a565b604051808215151515815260200191505060405180910390f35b61052b600480360360408110156104f557600080fd5b8101908080359060200190929190803573ffffffffffffffffffffffffffffffffffffffff169060200190929190505050610cc1565b005b610535610e6b565b6040518082815260200191505060405180910390f35b610553610e71565b005b6105976004803603602081101561056b57600080fd5b81019080803573ffffffffffffffffffffffffffffffffffffffff169060200190929190505050610fb6565b005b6105a161103c565b604051808273ffffffffffffffffffffffffffffffffffffffff1673ffffffffffffffffffffffffffffffffffffffff16815260200191505060405180910390f35b60045481565b60008260045411610662576040517f08c379a000000000000000000000000000000000000000000000000000000000815260040180806020018281038252600d8152602001807f494e56414c49445f524f554e440000000000000000000000000000000000000081525060200191505060405180910390fd5b60006008600085815260200190815260200160002054111561072057610719600860008581526020019081526020016000205461070b6009600087815260200190815260200160002060008673ffffffffffffffffffffffffffffffffffffffff1673ffffffffffffffffffffffffffffffffffffffff16815260200190815260200160002054600760008881526020019081526020016000205461106290919063ffffffff16565b6110e890919063ffffffff16565b9050610721565b5b92915050565b60076020528060005260406000206000915090505481565b60035481565b60008090505b8383905081101561077d5761077284848381811061076557fe5b90506020020135836107ce565b80600101905061074b565b50505050565b6009602052816000526040600020602052806000526040600020600091509150505481565b600160009054906101000a900473ffffffffffffffffffffffffffffffffffffffff1681565b6107d6610e71565b60006107e283836105e9565b90506009600084815260200190815260200160002060008373ffffffffffffffffffffffffffffffffffffffff1673ffffffffffffffffffffffffffffffffffffffff16815260200190815260200160002054600860008581526020019081526020016000206000828254039250508190555060006009600085815260200190815260200160002060008473ffffffffffffffffffffffffffffffffffffffff1673ffffffffffffffffffffffffffffffffffffffff16815260200190815260200160002081905550806007600085815260200190815260200160002060008282540392505081905550600260009054906101000a900473ffffffffffffffffffffffffffffffffffffffff1673ffffffffffffffffffffffffffffffffffffffff1663a9059cbb83836040518363ffffffff1660e01b8152600401808373ffffffffffffffffffffffffffffffffffffffff1673ffffffffffffffffffffffffffffffffffffffff16815260200182815260200192505050602060405180830381600087803b15801561097557600080fd5b505af1158015610989573d6000803e3d6000fd5b505050506040513d602081101561099f57600080fd5b8101908080519060200190929190505050508173ffffffffffffffffffffffffffffffffffffffff167ff279e6a1f5e320cca91135676d9cb6e44ca8a08c0b88342bcdb1144f6511b5688483604051808381526020018281526020019250505060405180910390a2505050565b610a14610c6a565b610a86576040517f08c379a00000000000000000000000000000000000000000000000000000000081526004018080602001828103825260208152602001807f4f776e61626c653a2063616c6c6572206973206e6f7420746865206f776e657281525060200191505060405180910390fd5b80600660006101000a81548173ffffffffffffffffffffffffffffffffffffffff021916908373ffffffffffffffffffffffffffffffffffffffff16021790555050565b610ad2610c6a565b610b44576040517f08c379a00000000000000000000000000000000000000000000000000000000081526004018080602001828103825260208152602001807f4f776e61626c653a2063616c6c6572206973206e6f7420746865206f776e657281525060200191505060405180910390fd5b600073ffffffffffffffffffffffffffffffffffffffff166000809054906101000a900473ffffffffffffffffffffffffffffffffffffffff1673ffffffffffffffffffffffffffffffffffffffff167f8be0079c531659141344cd1fd0a4f28419497f9722a3daafe3b4186f6b6457e060405160405180910390a360008060006101000a81548173ffffffffffffffffffffffffffffffffffffffff021916908373ffffffffffffffffffffffffffffffffffffffff160217905550565b60086020528060005260406000206000915090505481565b600660009054906101000a900473ffffffffffffffffffffffffffffffffffffffff1681565b60008060009054906101000a900473ffffffffffffffffffffffffffffffffffffffff16905090565b60008060009054906101000a900473ffffffffffffffffffffffffffffffffffffffff1673ffffffffffffffffffffffffffffffffffffffff163373ffffffffffffffffffffffffffffffffffffffff1614905090565b600660009054906101000a900473ffffffffffffffffffffffffffffffffffffffff1673ffffffffffffffffffffffffffffffffffffffff163373ffffffffffffffffffffffffffffffffffffffff1614610d84576040517f08c379a000000000000000000000000000000000000000000000000000000000815260040180806020018281038252600e8152602001807f494e56414c49445f43414c4c455200000000000000000000000000000000000081525060200191505060405180910390fd5b610d8c610e71565b81600860006004548152602001908152602001600020600082825401925050819055508160096000600454815260200190815260200160002060008373ffffffffffffffffffffffffffffffffffffffff1673ffffffffffffffffffffffffffffffffffffffff168152602001908152602001600020600082825401925050819055508073ffffffffffffffffffffffffffffffffffffffff167fcda33a906ffa8a5f960826827500581f4613a5db7a84b250433e0d591a63093860045484604051808381526020018281526020019250505060405180910390a25050565b60055481565b6000600554430390506003548110610fb357600160009054906101000a900473ffffffffffffffffffffffffffffffffffffffff1673ffffffffffffffffffffffffffffffffffffffff16639f678cca6040518163ffffffff1660e01b8152600401602060405180830381600087803b158015610eed57600080fd5b505af1158015610f01573d6000803e3d6000fd5b505050506040513d6020811015610f1757600080fd5b8101908080519060200190929190505050600760006004548152602001908152602001600020819055506001600460008282540192505081905550436005819055506004547f866f813a2289b14a1e94be9b6a7db4b5ad759df3fb1466245f650642f3cc7a5660076000600454815260200190815260200160002054600554604051808381526020018281526020019250505060405180910390a25b50565b610fbe610c6a565b611030576040517f08c379a00000000000000000000000000000000000000000000000000000000081526004018080602001828103825260208152602001807f4f776e61626c653a2063616c6c6572206973206e6f7420746865206f776e657281525060200191505060405180910390fd5b61103981611177565b50565b600260009054906101000a900473ffffffffffffffffffffffffffffffffffffffff1681565b60008083141561107557600090506110e2565b600082840290508284828161108657fe5b04146110dd576040517f08c379a00000000000000000000000000000000000000000000000000000000081526004018080602001828103825260218152602001806112e26021913960400191505060405180910390fd5b809150505b92915050565b600080821161115f576040517f08c379a000000000000000000000000000000000000000000000000000000000815260040180806020018281038252601a8152602001807f536166654d6174683a206469766973696f6e206279207a65726f00000000000081525060200191505060405180910390fd5b600082848161116a57fe5b0490508091505092915050565b600073ffffffffffffffffffffffffffffffffffffffff168173ffffffffffffffffffffffffffffffffffffffff1614156111fd576040517f08c379a00000000000000000000000000000000000000000000000000000000081526004018080602001828103825260268152602001806112bc6026913960400191505060405180910390fd5b8073ffffffffffffffffffffffffffffffffffffffff166000809054906101000a900473ffffffffffffffffffffffffffffffffffffffff1673ffffffffffffffffffffffffffffffffffffffff167f8be0079c531659141344cd1fd0a4f28419497f9722a3daafe3b4186f6b6457e060405160405180910390a3806000806101000a81548173ffffffffffffffffffffffffffffffffffffffff021916908373ffffffffffffffffffffffffffffffffffffffff1602179055505056fe4f776e61626c653a206e6577206f776e657220697320746865207a65726f2061646472657373536166654d6174683a206d756c7469706c69636174696f6e206f766572666c6f77a265627a7a72315820996521ca072ce62ab6fa6ea4ace3e6fce9010d88bcc9b9723fd21c7be9fafb8c64736f6c63430005100032",
  "source": "pragma solidity ^0.5.16;\n\nimport \"../libraries/tokens/IERC20.sol\";\nimport \"../libraries/utils/Ownable.sol\";\nimport \"../libraries/math/SafeMath.sol\";\nimport \"../libraries/utils/Address.sol\";\nimport \"../gov/Treasury.sol\";\n\ncontract MarketDistributor is Ownable {\n    using SafeMath for uint256;\n    using Address for address;\n\n    //Constant\n    Treasury public treasury;\n    IERC20 public token;\n\n    //Variables\n    uint256 public span; //17280\n    uint256 public round;\n    uint256 public lastRewardBlock;\n    address public market;\n    mapping(uint256 => uint256) public totalReward; //round=>reward\n    mapping(uint256 => uint256) public totalRewardShare; //round=>total score\n    mapping(uint256 => mapping(address => uint256)) public rewardShares; //round=>address=>scoreshare\n\n    event Registered(address indexed user, uint256 round, uint256 amount);\n    event RoundSettled(\n        uint256 indexed round,\n        uint256 amount,\n        uint256 blocknumber\n    );\n    event Withdraw(address indexed user, uint256 round, uint256 amount);\n\n    constructor(\n        uint256 _start,\n        uint256 _span,\n        IERC20 _token,\n        Treasury _treasury\n    ) public {\n        lastRewardBlock = _start;\n        span = _span;\n        token = _token;\n        treasury = _treasury;\n        round += 1;\n    }\n\n    function registerVolume(uint256 _volume, address _receipant) external {\n        require(msg.sender == market, \"INVALID_CALLER\");\n        changeRound();\n        totalRewardShare[round] += _volume;\n        rewardShares[round][_receipant] += _volume;\n        emit Registered(_receipant, round, _volume);\n    }\n\n    // In case gas is too high, use 'withdrawReward' for each round\n    function withdrawRewardAll(uint256[] calldata _rounds, address _shareholder)\n        external\n    {\n        for (uint256 i = 0; i < _rounds.length; ++i) {\n            withdrawReward(_rounds[i], _shareholder);\n        }\n    }\n\n    // Gas safe withdraw\n    function withdrawReward(uint256 _round, address _shareholder) public {\n        changeRound();\n        uint256 _reward = checkReward(_round, _shareholder);\n        totalRewardShare[_round] -= rewardShares[_round][_shareholder];\n        rewardShares[_round][_shareholder] = 0;\n        totalReward[_round] -= _reward;\n        token.transfer(_shareholder, _reward);\n        emit Withdraw(_shareholder, _round, _reward);\n    }\n\n    function changeRound() public {\n        uint256 blockElapsed = block.number - lastRewardBlock;\n        if (blockElapsed >= span) {\n            totalReward[round] = treasury.drip();\n            round += 1;\n            lastRewardBlock = block.number;\n            emit RoundSettled(round, totalReward[round], lastRewardBlock);\n        }\n    }\n\n    function checkReward(uint256 _round, address _shareholder)\n        public\n        view\n        returns (uint256)\n    {\n        require(round > _round, \"INVALID_ROUND\");\n        if (totalRewardShare[_round] > 0) {\n            return\n                totalReward[_round].mul(rewardShares[_round][_shareholder]).div(\n                    totalRewardShare[_round]\n                );\n        }\n    }\n\n    function setMarket(address _market) external onlyOwner {\n        market = _market;\n    }\n}\n",
  "sourcePath": "/Users/kohshiba/Desktop/monorepo/LOD/contracts/mining/MarketDistributor.sol",
  "compiler": {
    "name": "solc",
    "version": "0.5.16+commit.9c3226ce.Emscripten.clang"
  },
  "schemaVersion": "3.0.19",
  "updatedAt": "2020-11-04T23:16:58.002Z",
  "networkType": "ethereum",
  "devdoc": {
    "methods": {
      "isOwner()": {
        "details": "Returns true if the caller is the current owner."
      },
      "owner()": {
        "details": "Returns the address of the current owner."
      },
      "renounceOwnership()": {
        "details": "Leaves the contract without owner. It will not be possible to call `onlyOwner` functions anymore. Can only be called by the current owner.     * > Note: Renouncing ownership will leave the contract without an owner, thereby removing any functionality that is only available to the owner."
      },
      "transferOwnership(address)": {
        "details": "Transfers ownership of the contract to a new account (`newOwner`). Can only be called by the current owner."
      }
    }
  },
  "userdoc": {
    "methods": {}
  }
}