{
  "contractName": "Treasury",
  "abi": [
    {
      "inputs": [
        {
          "internalType": "uint256",
          "name": "_dripStart",
          "type": "uint256"
        },
        {
          "internalType": "uint256",
          "name": "_dripRate",
          "type": "uint256"
        },
        {
          "internalType": "uint256",
          "name": "_dripDiscount",
          "type": "uint256"
        },
        {
          "internalType": "uint256",
          "name": "_discountSpan",
          "type": "uint256"
        },
        {
          "internalType": "contract IERC20",
          "name": "_token",
          "type": "address"
        }
      ],
      "payable": false,
      "stateMutability": "nonpayable",
      "type": "constructor"
    },
    {
      "anonymous": false,
      "inputs": [
        {
          "indexed": true,
          "internalType": "address",
          "name": "previousOwner",
          "type": "address"
        },
        {
          "indexed": true,
          "internalType": "address",
          "name": "newOwner",
          "type": "address"
        }
      ],
      "name": "OwnershipTransferred",
      "type": "event"
    },
    {
      "constant": true,
      "inputs": [],
      "name": "discountRate",
      "outputs": [
        {
          "internalType": "uint256",
          "name": "",
          "type": "uint256"
        }
      ],
      "payable": false,
      "stateMutability": "view",
      "type": "function"
    },
    {
      "constant": true,
      "inputs": [],
      "name": "discountSpan",
      "outputs": [
        {
          "internalType": "uint256",
          "name": "",
          "type": "uint256"
        }
      ],
      "payable": false,
      "stateMutability": "view",
      "type": "function"
    },
    {
      "constant": true,
      "inputs": [
        {
          "internalType": "uint256",
          "name": "",
          "type": "uint256"
        }
      ],
      "name": "distributorList",
      "outputs": [
        {
          "internalType": "address",
          "name": "",
          "type": "address"
        }
      ],
      "payable": false,
      "stateMutability": "view",
      "type": "function"
    },
    {
      "constant": true,
      "inputs": [
        {
          "internalType": "address",
          "name": "",
          "type": "address"
        }
      ],
      "name": "distributors",
      "outputs": [
        {
          "internalType": "uint256",
          "name": "allocPoint",
          "type": "uint256"
        },
        {
          "internalType": "uint256",
          "name": "accrued",
          "type": "uint256"
        },
        {
          "internalType": "bool",
          "name": "existance",
          "type": "bool"
        }
      ],
      "payable": false,
      "stateMutability": "view",
      "type": "function"
    },
    {
      "constant": true,
      "inputs": [],
      "name": "dripRate",
      "outputs": [
        {
          "internalType": "uint256",
          "name": "",
          "type": "uint256"
        }
      ],
      "payable": false,
      "stateMutability": "view",
      "type": "function"
    },
    {
      "constant": true,
      "inputs": [],
      "name": "dripStart",
      "outputs": [
        {
          "internalType": "uint256",
          "name": "",
          "type": "uint256"
        }
      ],
      "payable": false,
      "stateMutability": "view",
      "type": "function"
    },
    {
      "constant": true,
      "inputs": [],
      "name": "isOwner",
      "outputs": [
        {
          "internalType": "bool",
          "name": "",
          "type": "bool"
        }
      ],
      "payable": false,
      "stateMutability": "view",
      "type": "function"
    },
    {
      "constant": true,
      "inputs": [],
      "name": "lastRewardBlock",
      "outputs": [
        {
          "internalType": "uint256",
          "name": "",
          "type": "uint256"
        }
      ],
      "payable": false,
      "stateMutability": "view",
      "type": "function"
    },
    {
      "constant": true,
      "inputs": [],
      "name": "owner",
      "outputs": [
        {
          "internalType": "address",
          "name": "",
          "type": "address"
        }
      ],
      "payable": false,
      "stateMutability": "view",
      "type": "function"
    },
    {
      "constant": false,
      "inputs": [],
      "name": "renounceOwnership",
      "outputs": [],
      "payable": false,
      "stateMutability": "nonpayable",
      "type": "function"
    },
    {
      "constant": true,
      "inputs": [],
      "name": "round",
      "outputs": [
        {
          "internalType": "uint256",
          "name": "",
          "type": "uint256"
        }
      ],
      "payable": false,
      "stateMutability": "view",
      "type": "function"
    },
    {
      "constant": true,
      "inputs": [],
      "name": "token",
      "outputs": [
        {
          "internalType": "contract IERC20",
          "name": "",
          "type": "address"
        }
      ],
      "payable": false,
      "stateMutability": "view",
      "type": "function"
    },
    {
      "constant": true,
      "inputs": [],
      "name": "totalAllocPoint",
      "outputs": [
        {
          "internalType": "uint256",
          "name": "",
          "type": "uint256"
        }
      ],
      "payable": false,
      "stateMutability": "view",
      "type": "function"
    },
    {
      "constant": false,
      "inputs": [
        {
          "internalType": "address",
          "name": "newOwner",
          "type": "address"
        }
      ],
      "name": "transferOwnership",
      "outputs": [],
      "payable": false,
      "stateMutability": "nonpayable",
      "type": "function"
    },
    {
      "constant": false,
      "inputs": [],
      "name": "updateAll",
      "outputs": [],
      "payable": false,
      "stateMutability": "nonpayable",
      "type": "function"
    },
    {
      "constant": false,
      "inputs": [],
      "name": "drip",
      "outputs": [
        {
          "internalType": "uint256",
          "name": "",
          "type": "uint256"
        }
      ],
      "payable": false,
      "stateMutability": "nonpayable",
      "type": "function"
    },
    {
      "constant": true,
      "inputs": [
        {
          "internalType": "address",
          "name": "_distributor",
          "type": "address"
        }
      ],
      "name": "pendingDrip",
      "outputs": [
        {
          "internalType": "uint256",
          "name": "",
          "type": "uint256"
        }
      ],
      "payable": false,
      "stateMutability": "view",
      "type": "function"
    },
    {
      "constant": false,
      "inputs": [
        {
          "internalType": "uint256",
          "name": "_allocPoint",
          "type": "uint256"
        },
        {
          "internalType": "address",
          "name": "_distributor",
          "type": "address"
        }
      ],
      "name": "add",
      "outputs": [],
      "payable": false,
      "stateMutability": "nonpayable",
      "type": "function"
    },
    {
      "constant": false,
      "inputs": [
        {
          "internalType": "uint256",
          "name": "_allocPoint",
          "type": "uint256"
        },
        {
          "internalType": "address",
          "name": "_distributor",
          "type": "address"
        }
      ],
      "name": "set",
      "outputs": [],
      "payable": false,
      "stateMutability": "nonpayable",
      "type": "function"
    }
  ],
  "bytecode": "0x608060405234801561001057600080fd5b50604051611be7380380611be7833981810160405260a081101561003357600080fd5b810190808051906020019092919080519060200190929190805190602001909291908051906020019092919080519060200190929190505050336000806101000a81548173ffffffffffffffffffffffffffffffffffffffff021916908373ffffffffffffffffffffffffffffffffffffffff1602179055506000809054906101000a900473ffffffffffffffffffffffffffffffffffffffff1673ffffffffffffffffffffffffffffffffffffffff16600073ffffffffffffffffffffffffffffffffffffffff167f8be0079c531659141344cd1fd0a4f28419497f9722a3daafe3b4186f6b6457e060405160405180910390a3846001819055508460088190555083600281905550826004819055508160038190555080600560006101000a81548173ffffffffffffffffffffffffffffffffffffffff021916908373ffffffffffffffffffffffffffffffffffffffff16021790555060016006819055505050505050611a3f806101a86000396000f3fe608060405234801561001057600080fd5b50600436106101215760003560e01c80638f32d59b116100ad578063e6c0e6d511610071578063e6c0e6d5146103ce578063eac5f2ef146103ec578063f004f2511461040a578063f2fde38b14610462578063fc0c546a146104a657610121565b80638f32d59b146102e85780639f678cca1461030a578063a9f8d18114610328578063cc64278414610346578063d3261592146103b057610121565b806342e418df116100f457806342e418df146101fe57806353d786931461026c578063715018a61461027657806388a91a8a146102805780638da5cb5b1461029e57610121565b8063146ca5311461012657806317caf6f1146101445780632b8bbbe8146101625780632f30c6f6146101b0575b600080fd5b61012e6104f0565b6040518082815260200191505060405180910390f35b61014c6104f6565b6040518082815260200191505060405180910390f35b6101ae6004803603604081101561017857600080fd5b8101908080359060200190929190803573ffffffffffffffffffffffffffffffffffffffff1690602001909291905050506104fc565b005b6101fc600480360360408110156101c657600080fd5b8101908080359060200190929190803573ffffffffffffffffffffffffffffffffffffffff1690602001909291905050506107b7565b005b61022a6004803603602081101561021457600080fd5b81019080803590602001909291905050506109bc565b604051808273ffffffffffffffffffffffffffffffffffffffff1673ffffffffffffffffffffffffffffffffffffffff16815260200191505060405180910390f35b6102746109f8565b005b61027e610de7565b005b610288610f20565b6040518082815260200191505060405180910390f35b6102a6610f26565b604051808273ffffffffffffffffffffffffffffffffffffffff1673ffffffffffffffffffffffffffffffffffffffff16815260200191505060405180910390f35b6102f0610f4f565b604051808215151515815260200191505060405180910390f35b610312610fa6565b6040518082815260200191505060405180910390f35b6103306111f4565b6040518082815260200191505060405180910390f35b6103886004803603602081101561035c57600080fd5b81019080803573ffffffffffffffffffffffffffffffffffffffff1690602001909291905050506111fa565b6040518084815260200183815260200182151515158152602001935050505060405180910390f35b6103b8611231565b6040518082815260200191505060405180910390f35b6103d6611237565b6040518082815260200191505060405180910390f35b6103f461123d565b6040518082815260200191505060405180910390f35b61044c6004803603602081101561042057600080fd5b81019080803573ffffffffffffffffffffffffffffffffffffffff169060200190929190505050611243565b6040518082815260200191505060405180910390f35b6104a46004803603602081101561047857600080fd5b81019080803573ffffffffffffffffffffffffffffffffffffffff16906020019092919050505061156e565b005b6104ae6115f4565b604051808273ffffffffffffffffffffffffffffffffffffffff1673ffffffffffffffffffffffffffffffffffffffff16815260200191505060405180910390f35b60065481565b60075481565b610504610f4f565b610576576040517f08c379a00000000000000000000000000000000000000000000000000000000081526004018080602001828103825260208152602001807f4f776e61626c653a2063616c6c6572206973206e6f7420746865206f776e657281525060200191505060405180910390fd5b60011515600a60008373ffffffffffffffffffffffffffffffffffffffff1673ffffffffffffffffffffffffffffffffffffffff16815260200190815260200160002060020160009054906101000a900460ff1615151415610640576040517f08c379a000000000000000000000000000000000000000000000000000000000815260040180806020018281038252600a8152602001807f4455504c4943415445440000000000000000000000000000000000000000000081525060200191505060405180910390fd5b6106486109f8565b61065d8260075461161a90919063ffffffff16565b60078190555060098190806001815401808255809150509060018203906000526020600020016000909192909190916101000a81548173ffffffffffffffffffffffffffffffffffffffff021916908373ffffffffffffffffffffffffffffffffffffffff1602179055505081600a60008373ffffffffffffffffffffffffffffffffffffffff1673ffffffffffffffffffffffffffffffffffffffff168152602001908152602001600020600001819055506000600a60008373ffffffffffffffffffffffffffffffffffffffff1673ffffffffffffffffffffffffffffffffffffffff168152602001908152602001600020600101819055506001600a60008373ffffffffffffffffffffffffffffffffffffffff1673ffffffffffffffffffffffffffffffffffffffff16815260200190815260200160002060020160006101000a81548160ff0219169083151502179055505050565b6107bf610f4f565b610831576040517f08c379a00000000000000000000000000000000000000000000000000000000081526004018080602001828103825260208152602001807f4f776e61626c653a2063616c6c6572206973206e6f7420746865206f776e657281525060200191505060405180910390fd5b60011515600a60008373ffffffffffffffffffffffffffffffffffffffff1673ffffffffffffffffffffffffffffffffffffffff16815260200190815260200160002060020160009054906101000a900460ff161515146108fa576040517f08c379a000000000000000000000000000000000000000000000000000000000815260040180806020018281038252600b8152602001807f4e4f4e4558495354454e5400000000000000000000000000000000000000000081525060200191505060405180910390fd5b6109026109f8565b61096b8261095d600a60008573ffffffffffffffffffffffffffffffffffffffff1673ffffffffffffffffffffffffffffffffffffffff168152602001908152602001600020600001546007546116a290919063ffffffff16565b61161a90919063ffffffff16565b60078190555081600a60008373ffffffffffffffffffffffffffffffffffffffff1673ffffffffffffffffffffffffffffffffffffffff168152602001908152602001600020600001819055505050565b600981815481106109c957fe5b906000526020600020016000915054906101000a900473ffffffffffffffffffffffffffffffffffffffff1681565b6001544310610de5576000610a2e600154610a2060035460065461172b90919063ffffffff16565b61161a90919063ffffffff16565b9050600081431115610b18576000610a61600254610a5c60016006540360045461172b90919063ffffffff16565b6117b1565b90506000610a87600254610a8260065460045461172b90919063ffffffff16565b6117b1565b90506000610aa0600854866116a290919063ffffffff16565b90506000610ab786436116a290919063ffffffff16565b90506000610ace858461172b90919063ffffffff16565b90506000610ae5858461172b90919063ffffffff16565b9050610afa818361161a90919063ffffffff16565b96506001600660008282540192505081905550505050505050610b78565b6000610b3f600254610b3a60016006540360045461172b90919063ffffffff16565b6117b1565b90506000610b58600854436116a290919063ffffffff16565b90506000610b6f838361172b90919063ffffffff16565b90508093505050505b6000600560009054906101000a900473ffffffffffffffffffffffffffffffffffffffff1673ffffffffffffffffffffffffffffffffffffffff166370a08231306040518263ffffffff1660e01b8152600401808273ffffffffffffffffffffffffffffffffffffffff1673ffffffffffffffffffffffffffffffffffffffff16815260200191505060206040518083038186803b158015610c1957600080fd5b505afa158015610c2d573d6000803e3d6000fd5b505050506040513d6020811015610c4357600080fd5b810190808051906020019092919050505090506000610c6282846117d5565b90506000811115610de05760008090505b600980549050811015610dd757600060098281548110610c8f57fe5b9060005260206000200160009054906101000a900473ffffffffffffffffffffffffffffffffffffffff1690506000600a60008373ffffffffffffffffffffffffffffffffffffffff1673ffffffffffffffffffffffffffffffffffffffff1681526020019081526020016000206001015490506000610d6e600754610d60600a60008773ffffffffffffffffffffffffffffffffffffffff1673ffffffffffffffffffffffffffffffffffffffff168152602001908152602001600020600001548861172b90919063ffffffff16565b6117f090919063ffffffff16565b9050610d83828261161a90919063ffffffff16565b600a60008573ffffffffffffffffffffffffffffffffffffffff1673ffffffffffffffffffffffffffffffffffffffff16815260200190815260200160002060010181905550505050806001019050610c73565b50436008819055505b505050505b565b610def610f4f565b610e61576040517f08c379a00000000000000000000000000000000000000000000000000000000081526004018080602001828103825260208152602001807f4f776e61626c653a2063616c6c6572206973206e6f7420746865206f776e657281525060200191505060405180910390fd5b600073ffffffffffffffffffffffffffffffffffffffff166000809054906101000a900473ffffffffffffffffffffffffffffffffffffffff1673ffffffffffffffffffffffffffffffffffffffff167f8be0079c531659141344cd1fd0a4f28419497f9722a3daafe3b4186f6b6457e060405160405180910390a360008060006101000a81548173ffffffffffffffffffffffffffffffffffffffff021916908373ffffffffffffffffffffffffffffffffffffffff160217905550565b60015481565b60008060009054906101000a900473ffffffffffffffffffffffffffffffffffffffff16905090565b60008060009054906101000a900473ffffffffffffffffffffffffffffffffffffffff1673ffffffffffffffffffffffffffffffffffffffff163373ffffffffffffffffffffffffffffffffffffffff1614905090565b600060011515600a60003373ffffffffffffffffffffffffffffffffffffffff1673ffffffffffffffffffffffffffffffffffffffff16815260200190815260200160002060020160009054906101000a900460ff16151514611071576040517f08c379a000000000000000000000000000000000000000000000000000000000815260040180806020018281038252600e8152602001807f494e56414c49445f43414c4c455200000000000000000000000000000000000081525060200191505060405180910390fd5b6110796109f8565b6000600a60003373ffffffffffffffffffffffffffffffffffffffff1673ffffffffffffffffffffffffffffffffffffffff1681526020019081526020016000206001015490506000600a60003373ffffffffffffffffffffffffffffffffffffffff1673ffffffffffffffffffffffffffffffffffffffff16815260200190815260200160002060010181905550600560009054906101000a900473ffffffffffffffffffffffffffffffffffffffff1673ffffffffffffffffffffffffffffffffffffffff1663a9059cbb33836040518363ffffffff1660e01b8152600401808373ffffffffffffffffffffffffffffffffffffffff1673ffffffffffffffffffffffffffffffffffffffff16815260200182815260200192505050602060405180830381600087803b1580156111b157600080fd5b505af11580156111c5573d6000803e3d6000fd5b505050506040513d60208110156111db57600080fd5b8101908080519060200190929190505050508091505090565b60085481565b600a6020528060005260406000206000915090508060000154908060010154908060020160009054906101000a900460ff16905083565b60025481565b60045481565b60035481565b6000600154431061156457600061127b60015461126d60035460065461172b90919063ffffffff16565b61161a90919063ffffffff16565b90506000814311156113545760006112ae6002546112a960016006540360045461172b90919063ffffffff16565b6117b1565b905060006112d46002546112cf60065460045461172b90919063ffffffff16565b6117b1565b905060006112ed600854866116a290919063ffffffff16565b9050600061130486436116a290919063ffffffff16565b9050600061131b858461172b90919063ffffffff16565b90506000611332858461172b90919063ffffffff16565b9050611347818361161a90919063ffffffff16565b96505050505050506113b4565b600061137b60025461137660016006540360045461172b90919063ffffffff16565b6117b1565b90506000611394600854436116a290919063ffffffff16565b905060006113ab838361172b90919063ffffffff16565b90508093505050505b6000600560009054906101000a900473ffffffffffffffffffffffffffffffffffffffff1673ffffffffffffffffffffffffffffffffffffffff166370a08231306040518263ffffffff1660e01b8152600401808273ffffffffffffffffffffffffffffffffffffffff1673ffffffffffffffffffffffffffffffffffffffff16815260200191505060206040518083038186803b15801561145557600080fd5b505afa158015611469573d6000803e3d6000fd5b505050506040513d602081101561147f57600080fd5b81019080805190602001909291905050509050600061149e82846117d5565b90506000600a60008873ffffffffffffffffffffffffffffffffffffffff1673ffffffffffffffffffffffffffffffffffffffff1681526020019081526020016000206001015490506000611552600754611544600a60008c73ffffffffffffffffffffffffffffffffffffffff1673ffffffffffffffffffffffffffffffffffffffff168152602001908152602001600020600001548661172b90919063ffffffff16565b6117f090919063ffffffff16565b90508181019650505050505050611569565b600090505b919050565b611576610f4f565b6115e8576040517f08c379a00000000000000000000000000000000000000000000000000000000081526004018080602001828103825260208152602001807f4f776e61626c653a2063616c6c6572206973206e6f7420746865206f776e657281525060200191505060405180910390fd5b6115f18161187f565b50565b600560009054906101000a900473ffffffffffffffffffffffffffffffffffffffff1681565b600080828401905083811015611698576040517f08c379a000000000000000000000000000000000000000000000000000000000815260040180806020018281038252601b8152602001807f536166654d6174683a206164646974696f6e206f766572666c6f77000000000081525060200191505060405180910390fd5b8091505092915050565b60008282111561171a576040517f08c379a000000000000000000000000000000000000000000000000000000000815260040180806020018281038252601e8152602001807f536166654d6174683a207375627472616374696f6e206f766572666c6f77000081525060200191505060405180910390fd5b600082840390508091505092915050565b60008083141561173e57600090506117ab565b600082840290508284828161174f57fe5b04146117a6576040517f08c379a00000000000000000000000000000000000000000000000000000000081526004018080602001828103825260218152602001806119ea6021913960400191505060405180910390fd5b809150505b92915050565b60008183116117c357600090506117cf565b60008284039050809150505b92915050565b60008183116117e6578290506117ea565b8190505b92915050565b6000808211611867576040517f08c379a000000000000000000000000000000000000000000000000000000000815260040180806020018281038252601a8152602001807f536166654d6174683a206469766973696f6e206279207a65726f00000000000081525060200191505060405180910390fd5b600082848161187257fe5b0490508091505092915050565b600073ffffffffffffffffffffffffffffffffffffffff168173ffffffffffffffffffffffffffffffffffffffff161415611905576040517f08c379a00000000000000000000000000000000000000000000000000000000081526004018080602001828103825260268152602001806119c46026913960400191505060405180910390fd5b8073ffffffffffffffffffffffffffffffffffffffff166000809054906101000a900473ffffffffffffffffffffffffffffffffffffffff1673ffffffffffffffffffffffffffffffffffffffff167f8be0079c531659141344cd1fd0a4f28419497f9722a3daafe3b4186f6b6457e060405160405180910390a3806000806101000a81548173ffffffffffffffffffffffffffffffffffffffff021916908373ffffffffffffffffffffffffffffffffffffffff1602179055505056fe4f776e61626c653a206e6577206f776e657220697320746865207a65726f2061646472657373536166654d6174683a206d756c7469706c69636174696f6e206f766572666c6f77a265627a7a723158207fd953d6e4d3f32790f984483cfe2ea0d1a04b3f354a430e4b6fc5fb71f502e964736f6c63430005100032",
  "source": "pragma solidity ^0.5.16;\n\nimport \"../libraries/tokens/IERC20.sol\";\nimport \"../libraries/utils/Ownable.sol\";\nimport \"../libraries/math/SafeMath.sol\";\nimport \"../libraries/utils/Address.sol\";\n\n/**\n * @title Treasury Contract\n */\ncontract Treasury is Ownable {\n    using SafeMath for uint256;\n    using Address for address;\n\n    /// @notice The block number when the Reservoir started (immutable)\n    uint256 public dripStart;\n    /// @notice Initial tokens per block that to drip to target (immutable)\n    uint256 public dripRate;\n    /// @notice After a discount span passed, the discount rate difined bwelow get applied to the drip rate(immutable)\n    uint256 public discountSpan;\n    /// @notice Discount rate for dynamic drip rate(immutable)\n    uint256 public discountRate;\n    /// @notice Reference to token to drip (immutable)\n    IERC20 public token;\n    /// @notice round represents how many times discount gets applied to driprate. (round -1)times applied\n    uint256 public round;\n    /// @notice Total allocation points. Must be the sum of all allocation points in all pools.\n    uint256 public totalAllocPoint;\n    /// @notice Last block number that LODs distribution occurs.\n    uint256 public lastRewardBlock;\n\n    /// @notice Struct for each distribution logic\n    struct Info {\n        uint256 allocPoint; // How many allocation points assigned to. LODs to distribute per block.\n        uint256 accrued; // Accumulated LODs\n        bool existance; //If pool exists, it becomes true.\n    }\n    /// @notice Distributor list\n    address[] public distributorList;\n    /// @notice Defining each address of distributor\n    mapping(address => Info) public distributors;\n\n    /**\n     * @notice Constructs a Treasruty\n     * @param _dripRate Numer of tokens per block to drip\n     * @param _token The token to drip\n     */\n    constructor(\n        uint256 _dripStart,\n        uint256 _dripRate,\n        uint256 _dripDiscount,\n        uint256 _discountSpan,\n        IERC20 _token\n    ) public {\n        dripStart = _dripStart;\n        lastRewardBlock = _dripStart;\n        dripRate = _dripRate;\n        discountRate = _dripDiscount;\n        discountSpan = _discountSpan;\n        token = _token;\n        round = 1;\n    }\n\n    /**\n     * @notice update reward variables for all distributors.\n     */\n    function updateAll() public {\n        if (block.number >= dripStart) {\n            uint256 _spanEnd = round.mul(discountSpan).add(dripStart);\n            uint256 _dripTotal;\n            if (block.number > _spanEnd) {\n                uint256 _previousRate = safeSub(\n                    dripRate,\n                    discountRate.mul(round - 1)\n                );\n                uint256 _currentRate = safeSub(\n                    dripRate,\n                    discountRate.mul(round)\n                );\n                uint256 _previousTarget = _spanEnd.sub(lastRewardBlock);\n                uint256 _currentTarget = block.number.sub(_spanEnd);\n                uint256 _previousReward = _previousTarget.mul(_previousRate);\n                uint256 _currentReward = _currentTarget.mul(_currentRate);\n                _dripTotal = _previousReward.add(_currentReward);\n                round += 1;\n            } else {\n                uint256 _rate = safeSub(dripRate, discountRate.mul(round - 1));\n                uint256 _target = block.number.sub(lastRewardBlock);\n                uint256 _reward = _target.mul(_rate);\n                _dripTotal = _reward;\n            }\n            uint256 _tokenBalance = token.balanceOf(address(this));\n            uint256 _toDrip = min(_tokenBalance, _dripTotal);\n\n            // Finally, write new `dripped` value and accrued drip to target distributor\n            if (_toDrip > 0) {\n                for (uint256 i = 0; i < distributorList.length; ++i) {\n                    address distributor = distributorList[i];\n                    uint256 accurued = distributors[distributor].accrued;\n                    uint256 reward = _toDrip\n                        .mul(distributors[distributor].allocPoint)\n                        .div(totalAllocPoint);\n                    distributors[distributor].accrued = reward.add(accurued);\n                }\n                lastRewardBlock = block.number;\n            }\n        }\n    }\n\n    /**\n     * @notice Drips the maximum amount of tokens to match the drip rate since inception\n     * @dev Note: this will only drip up to the amount of tokens available.\n     * @return The amount of tokens dripped in this call\n     */\n    function drip() public returns (uint256) {\n        // Check wheter caller is registered\n        require(distributors[msg.sender].existance == true, \"INVALID_CALLER\");\n        updateAll();\n        uint256 accrued = distributors[msg.sender].accrued;\n        distributors[msg.sender].accrued = 0;\n        token.transfer(msg.sender, accrued);\n        return accrued;\n    }\n\n    /**\n     * @notice Check how much can be dripped for a distributor\n     * @return The amount of tokens can be dripped for a distributor\n     */\n    function pendingDrip(address _distributor) public view returns (uint256) {\n        if (block.number >= dripStart) {\n            uint256 _spanEnd = round.mul(discountSpan).add(dripStart);\n            uint256 _dripTotal;\n            if (block.number > _spanEnd) {\n                uint256 _previousRate = safeSub(\n                    dripRate,\n                    discountRate.mul(round - 1)\n                );\n                uint256 _currentRate = safeSub(\n                    dripRate,\n                    discountRate.mul(round)\n                );\n                uint256 _previousTarget = _spanEnd.sub(lastRewardBlock);\n                uint256 _currentTarget = block.number.sub(_spanEnd);\n                uint256 _previousReward = _previousTarget.mul(_previousRate);\n                uint256 _currentReward = _currentTarget.mul(_currentRate);\n                _dripTotal = _previousReward.add(_currentReward);\n            } else {\n                uint256 _rate = safeSub(dripRate, discountRate.mul(round - 1));\n                uint256 _target = block.number.sub(lastRewardBlock);\n                uint256 _reward = _target.mul(_rate);\n                _dripTotal = _reward;\n            }\n\n            uint256 _tokenBalance = token.balanceOf(address(this));\n            uint256 _toDrip = min(_tokenBalance, _dripTotal);\n            uint256 _accrued = distributors[_distributor].accrued;\n            uint256 _reward = _toDrip\n                .mul(distributors[_distributor].allocPoint)\n                .div(totalAllocPoint);\n            return _reward + _accrued;\n        } else {\n            return 0;\n        }\n    }\n\n    /**\n     * @notice Add a new distributor to the pool. Can only be called by the owner\n     */\n    function add(uint256 _allocPoint, address _distributor) public onlyOwner {\n        require(distributors[_distributor].existance != true, \"DUPLICATED\");\n        updateAll();\n        totalAllocPoint = totalAllocPoint.add(_allocPoint);\n        distributorList.push(_distributor);\n        distributors[_distributor].allocPoint = _allocPoint;\n        distributors[_distributor].accrued = 0;\n        distributors[_distributor].existance = true;\n    }\n\n    /**\n     * @notice Update the given distributor's LODs allocation point. Can only be called by the owner.\n     */\n    function set(uint256 _allocPoint, address _distributor) public onlyOwner {\n        require(distributors[_distributor].existance == true, \"NONEXISTENT\");\n        updateAll();\n\n        totalAllocPoint = totalAllocPoint\n            .sub(distributors[_distributor].allocPoint)\n            .add(_allocPoint);\n        distributors[_distributor].allocPoint = _allocPoint;\n    }\n\n    /**\n     * @notice Internal function to compare two number and return the smaller one\n     */\n    function min(uint256 a, uint256 b) internal pure returns (uint256) {\n        if (a <= b) {\n            return a;\n        } else {\n            return b;\n        }\n    }\n\n    /**\n     * @notice Internal function that returns 0 for subtraction overflows\n     */\n    function safeSub(uint256 a, uint256 b) internal pure returns (uint256) {\n        if (a <= b) {\n            return 0;\n        } else {\n            uint256 c = a - b;\n            return c;\n        }\n    }\n}\n",
  "sourcePath": "/Users/kohshiba/Desktop/monorepo/LOD/contracts/gov/Treasury.sol",
  "compiler": {
    "name": "solc",
    "version": "0.5.16+commit.9c3226ce.Emscripten.clang"
  },
  "schemaVersion": "3.0.19",
  "updatedAt": "2020-11-04T23:16:58.011Z",
  "networkType": "ethereum",
  "devdoc": {
    "methods": {
      "constructor": {
        "params": {
          "_dripRate": "Numer of tokens per block to drip",
          "_token": "The token to drip"
        }
      },
      "drip()": {
        "details": "Note: this will only drip up to the amount of tokens available.",
        "return": "The amount of tokens dripped in this call"
      },
      "isOwner()": {
        "details": "Returns true if the caller is the current owner."
      },
      "owner()": {
        "details": "Returns the address of the current owner."
      },
      "pendingDrip(address)": {
        "return": "The amount of tokens can be dripped for a distributor"
      },
      "renounceOwnership()": {
        "details": "Leaves the contract without owner. It will not be possible to call `onlyOwner` functions anymore. Can only be called by the current owner.     * > Note: Renouncing ownership will leave the contract without an owner, thereby removing any functionality that is only available to the owner."
      },
      "transferOwnership(address)": {
        "details": "Transfers ownership of the contract to a new account (`newOwner`). Can only be called by the current owner."
      }
    },
    "title": "Treasury Contract"
  },
  "userdoc": {
    "methods": {
      "add(uint256,address)": {
        "notice": "Add a new distributor to the pool. Can only be called by the owner"
      },
      "constructor": "Constructs a Treasruty",
      "drip()": {
        "notice": "Drips the maximum amount of tokens to match the drip rate since inception"
      },
      "pendingDrip(address)": {
        "notice": "Check how much can be dripped for a distributor"
      },
      "set(uint256,address)": {
        "notice": "Update the given distributor's LODs allocation point. Can only be called by the owner."
      },
      "updateAll()": {
        "notice": "update reward variables for all distributors."
      }
    }
  }
}